:020000040800F2
:10000000780C0020F9020008013C0008FD3B0008C4
:10001000FF3B00083B1F0008C9410008000000002A
:100020000000000000000000000000008F3C0008FD
:100030003D1F000800000000233C0008D53C0008DC
:100040001303000813030008130300081303000838
:100050001303000813030008130300081303000828
:100060001303000813030008130300081303000818
:100070001303000813030008130300081303000808
:1000800013030008130300081303000813030008F8
:1000900013030008130300081303000813030008E8
:1000A00013030008130300081303000813030008D8
:1000B00013030008213D0008130300081303000880
:1000C00013030008130300081303000813030008B8
:1000D000130300085141000813030008130300082C
:1000E0001303000813030008130300081303000898
:1000F0001303000813030008130300081303000888
:100100001303000813030008130300081303000877
:100110001303000813030008130300081303000867
:100120001303000813030008130300081303000857
:1001300000F002F800F0B6F80AA090E8000C824443
:100140008344AAF10107DA4501D100F0ABF8AFF220
:10015000090EBAE80F0013F0010F18BFFB1A43F0A5
:10016000010318478C7F0000AC7F000010F8013BB2
:100170000A4413F0030408BF10F8014B1D1108BF17
:1001800010F8015B641E05D010F8016B641E01F8C5
:10019000016BF9D1002D15D010F8014B03F00C03C1
:1001A0000C2BA1EB04040ABF10F8013BA4EB831451
:1001B000A4EB032405F1010314F8016B5B1E01F8A5
:1001C000016BF9D5914238BF10F8013BD1D370478C
:1001D0000023002400250026103A28BF78C1FBD850
:1001E000520728BF30C148BF0B6070476E2900F02E
:1001F000E783702900F05985662907F06C85652929
:1002000007F06985672907F06685612907F065852C
:1002100003681B0A28BF41F08001692900F0F080C3
:10022000642900F0ED80752900F0EA806F2900F064
:10023000E684782900F02585E92900F08184E42905
:1002400000F07E84F52900F07B84EF2900F0E38440
:10025000F82900F024850368DB0928BF41F08001FC
:10026000632900F0F083732900F0F583E32901F09E
:100270000381F32901F00881002070471FB500F0C9
:10028000D4F901F057F904000020002106F058FDD0
:10029000401C60600020002106F03CFDE0601FBDB6
:1002A00010B510BD01F018F91146FFF7E7FF05F092
:1002B000E9FA01F0F5F903B4FFF7F2FF03BC03F02C
:1002C0009FFF00000B49D1F800C04A685CF8043B6E
:1002D0001068184442F8040B8C4528BFA1F1DC0CCF
:1002E0008A4228BFA1F1DC02C1F800C04A6020F0B8
:1002F000004070470C060020094880470948004725
:10030000FEE7FEE7FEE7FEE7FEE7FEE7FEE7FEE7C5
:10031000FEE7FEE704480549054A064B7047000022
:10032000D93C00083101000878060020780C002034
:100330007808002078080020704700001CB50C46A3
:10034000064B7B4469460090204600F052FB044671
:100350000020694600F060FB20461CBDD30600006B
:100360007CB51D4616460C00009001D02044401E6E
:10037000074B7B442A4669460190304600F039FB22
:1003800005461CB10020694600F046FB28467CBDAE
:10039000AD0600000FB4044910B503AA029800F09E
:1003A0005FFB10BC5DF814FB1400002070B50C4618
:1003B0000546012A05D02878800600D5EA69002381
:1003C00002E0012305E05B1C934202D2E05C0028BE
:1003D000F9D1A869E618C01AA861286A18442862E9
:1003E000284600F05BFA04E0D5E9012114F8010B7E
:1003F0009047B442F8D3284600F066FA70BD00007A
:100400002DE9F0410646002410687529314616A5ED
:1004100010D000F06AFA002802DA404213A507E083
:1004200031688A0701D512A502E0490704D511A554
:10043000012401E000F062FA00210A2206F12407FB
:1004400009E0B0FBF2FCB0FBF2F302FB1C00303021
:1004500078541846491C0028F3D123462A463046D2
:10046000BDE8F04100F053BA000000002D0000008C
:100470002B000000200000002DE9F05F89460446B3
:100480004FF0000ADFF874B1FB44C0F820A020460A
:10049000E1688847002874D0252806D0D4E90121D6
:1004A0009047206A401C2062F1E700265F46204604
:1004B000E16888472028054607DB312D05D27819E9
:1004C00010F8200C08B10643F1E7B00701D526F07B
:1004D0000406C4F81CA00027C4F818A02A2D09D0CF
:1004E000284603F086FE38B304EB8708303DC8F891
:1004F000185019E059F8041B204604EB870291615B
:10050000E1688847012F054618D1E069002820DA04
:1005100026F020061DE0D8F8180000EB800005EB5F
:1005200040003038C8F818002046E1688847054682
:1005300003F05FFE0028EED1012F0AD02E2D08D146
:100540002046E16888477F1C0546022F46F02006BA
:10055000C4DBA069002803DA404246F00106A0612E
:10056000F00701D026F010066C2D0BD0682D09D0B5
:100570004C2D39D06A2D35D0742D35D07A2D33D00D
:1005800016E038E0E1682F4620468847B842054625
:1005900009D16C2F26D04FF48060E16806432046D5
:1005A0008847054604E06C2F1AD04FF4807006434C
:1005B0000DB3A5F14100192802D8203546F4006694
:1005C0004A462946204626604E46FFF70FFE80B178
:1005D00001280BD0F61D26F0070000F1080956E7A8
:1005E0004020E4E78020D8E70020D6E706F10409A0
:1005F0004DE7284652E7206ABDE8F09FC87A000020
:100600000B4910B5A1F17C020A4CC2E9371237211F
:1006100006E000EB104342F82130074B00FB03409B
:100620000B1EA1F10101F4DC10BD0120E8E7000080
:10063000AC050020E119D666CD0D010010B5431CB4
:1006400002E010F8011B71B18107FAD14FF00132BD
:1006500002C88C1A8C4314EAC211F9D0C01A0A06D7
:1006600003D0C01E10BDC01A10BD0A0401D0801EE8
:1006700010BD0902FCD0401E10BD421E12F8013F01
:10068000002BFBD111F8013B002B02F8013BF9D103
:100690007047032A40F2308010F0030C00F0158000
:1006A00011F8013BBCF1020F624498BF11F801CB75
:1006B00000F8013B38BF11F8013BA2F1040298BFDA
:1006C00000F801CB38BF00F8013B11F0030300F044
:1006D0002580083AC0F0088051F8043B083A51F8E8
:1006E00004CBA0E80810F5E7121D5CBF51F8043BED
:1006F00040F8043BAFF30080D20724BF11F8013B60
:1007000011F801CB48BF11F8012B24BF00F8013BC1
:1007100000F801CB48BF00F8012B704710B5203A14
:10072000C0F00B80B1E81850203AA0E81850B1E8AA
:100730001850A0E81850BFF4F5AF5FEA027C24BF60
:10074000B1E81850A0E8185044BF18C918C0BDE857
:1007500010405FEA827C24BF51F8043B40F8043B20
:1007600008BF7047D20728BF31F8023B48BF11F8D5
:10077000012B28BF20F8023B48BF00F8012B70472F
:100780004FF000020429C0F0128010F0030C00F0BA
:100790001B80CCF1040CBCF1020F18BF00F8012B38
:1007A000A8BF20F8022BA1EB0C0100F00DB85FEA06
:1007B000C17C24BF00F8012B00F8012B48BF00F8D2
:1007C000012B70474FF0000200B513469446964641
:1007D000203922BFA0E80C50A0E80C50B1F1200154
:1007E000BFF4F7AF090728BFA0E80C5048BF0CC002
:1007F0005DF804EB890028BF40F8042B08BF704760
:1008000048BF20F8022B11F0804F18BF00F8012BD1
:10081000704700004FF0013C50F8042B51F8043BA6
:100820009A4221D1A2EB0C03934313EACC1317D1C4
:1008300050F8042B51F8043B9A4215D1A2EB0C035B
:10084000934313EACC130BD150F8042B51F8043B1B
:100850009A4209D1A2EB0C03934313EACC13DBD0E9
:100860004FF00000704700BFD01A01BAB1FA81F111
:1008700001F0180122FA01F0CB40C1F12001DBB2F6
:10088000C0B2C01A2CFA01F3D11A914311EAC31174
:10089000E6D17047704770477047704770B504469F
:1008A00085690068C10601D5302600E02026C00712
:1008B00007D070BDD4E9012130469047206A401C22
:1008C00020626D1EF6D570BD70B50446856900784E
:1008D000C00707D170BDD4E9012120209047206ACC
:1008E000401C20626D1EF6D570BD09684A0501D511
:1008F00040B27047C905FCD500B2704709684A0587
:1009000001D5C0B27047C905FCD580B270472DE94A
:10091000F0470D4699469246044600F124080168C6
:10092000880604D5E06921F01001216000E0012073
:10093000A84201DD471B00E00027A1697A1902EBFC
:100940000900081AA0612078C00602D42046FFF7EB
:10095000A5FF002608E0D4E901211AF80600904717
:10096000206A401C761C20624E45F4DB2078C006CD
:100970000AD52046FFF792FF06E0D4E90121302096
:100980009047206A401C2062381EA7F10107F4DC62
:1009900007E0D4E9012118F805009047206A401CBF
:1009A0002062281EA5F10105F3DC2046FFF78CFF2D
:1009B0002078000602D50220BDE8F0870120FBE781
:1009C00011680268006A530501D508700AE0D30572
:1009D00001D5088006E0130603D5C217C1E900025D
:1009E00000E008600120704701694A1C0261087834
:1009F000704700B58FB0CDE901310021059105495F
:100A00007944CDE9031011466846FFF735FD0FB074
:100A100000BD0000E5FFFFFF0A6802F8010B0A6055
:100A20007047D1E900239A4202D2531C0B60107028
:100A3000704710B5436913B1AFF3008001E0FFF7D1
:100A4000B5FC012010BD127800F124010A700022CB
:100A50004A700122EDE711684FF0FF32E9E700002C
:100A6000074B70B50D467B44FFF7C3FF044628468D
:100A700000F00EFD10B14FF0FF3070BD204670BD8C
:100A8000E74700002DE9FF5F15468A460446DFF878
:100A9000AC80F8440027D8E900103E46CDE90010AC
:100AA00010E03AF816106A4602A800F0F5FC411C66
:100AB00007D02178890603D5E269391891420DD80B
:100AC0000744761C2078800602D5E069B84205DD2F
:100AD000AE42E6DB3AF816000028E2D1A069C01B5E
:100AE000A0612046FFF7DAFED8E90010CDE900103A
:100AF000002017E03AF818106A4602A800F0CCFC73
:100B0000B0F1FF3F81460BD000250DF1080B05E049
:100B1000D4E901211BF8050090476D1C4D45F7D322
:100B200008F10100B0428046E4DB206A38442062CC
:100B30002046FFF7C9FEBDE8FF9F0000D274000009
:100B40002DE9F0418046D21D22F007020025D2E9AE
:100B50000002F52915A614D0011E72F1000106DA73
:100B60000023D0EB030063EB020211A608E0D8F8E3
:100B700000108B0701D50FA602E0490701D50EA68C
:100B800001251146002408F1240704E000F098F83C
:100B900030323A55641C50EA0102F7D12B463246F6
:100BA00021464046BDE8F041FFF7B1BE000000001D
:100BB0002D0000002B0000002000000030B40021B8
:100BC00000F1240408E002F00705D208303542EABB
:100BD0004372DB086554491C52EA0305F3D10468EB
:100BE000002310A2250707D5A40600D421B1C469AB
:100BF00001230DA2641EC46130BCFFF788BE10B58E
:100C0000044621461068FFF779FE02462046BDE8FB
:100C100010400023D2E7D21D22F00701D1E90023C2
:100C2000CCE700000000000030000000F0B40D46EA
:100C30000188090502D5214C7C4402E01F4C7C440C
:100C40000E34002100F1240608E002F00F0712091B
:100C5000E75D42EA03721B097754491C52EA030715
:100C6000F3D102780023120704D5702D06D009B104
:100C7000022311342246F0BCFFF749BE0123103491
:100C8000F8E770B504460D4621461068FFF736FEBA
:100C9000024629462046BDE870400023C6E7D21D23
:100CA00022F00703D3E90023C0E70368126843F08A
:100CB000200303600823C3610023B7E734730000F7
:100CC00030B5B0F10A024FEA900E71F100034EEA1E
:100CD000817EB0EB0E0061EB91014FEA101E4EEAEF
:100CE000017E10EB0E0041EB11114FEA102E4EEA7F
:100CF000016E10EB0E0041EB11214FEA104E4EEA4F
:100D0000014E10EB0E0041EB1141401841F1000182
:100D10004FEAD00040EA41704FEAD10110EB800564
:100D20004FEA810444EA907444EB01046D1944EBEA
:100D30000404521BA3414FF0000348BF0A3200D500
:100D400030BD401C41F1000130BD70472DE9FF4F1F
:100D50000C461E464FF0FF378BB0D2E90001DDF89C
:100D600060800A908A46C1F30A5505B93D460021C4
:100D700008464FF00000BAF1000F00F4400005DA19
:100D800000EB80004FF4400101EA50004FEA905917
:100D9000B9F1010F00DDB9460A9850EA4A000ED0B9
:100DA00044F61050A5F2FF3545432F14B8F1000F5B
:100DB0001ED07542291E1EDDC9F100021CE0B8F1EB
:100DC000010F4FF0000001D0302103E0F24305E0B5
:100DD0002154401CB042FBDB30460022002121544C
:100DE0000B99C1F80880C1E900200FB0BDE8F08F71
:100DF000BD1B6D1CDEE74A4600DA694206A800F01A
:100E0000DDFB06AB93E8070003AB83E80700504621
:100E10000A9900F053FC8DE80700A0F500501F3838
:100E200000900398002D0ADD42F21F014A46084453
:100E3000002303A90390684600F0BCFE09E0A0F57A
:100E400000504A461F38002303A90390684600F06B
:100E5000C6FE8DE807000004000C03D04FF0FF3001
:100E6000410800E01046B8F1000F03D000220092C4
:100E700015461EE0751E05D4FFF722FF303262557D
:100E80006D1EF9D5B3460122084302D000227F1C13
:100E900004E02078302801D100227F1E002A099723
:100EA00084D01DE0112D07DAFFF70AFF30326255BA
:100EB0006D1C50EA0102F5D1084302D00098C8B178
:100EC0000EE00021681E05E0235C625C635422543E
:100ED000401E491C8142F7DBAB46A81B401E09900F
:100EE000002004F80B000B98099AC0F80880C0E9AC
:100EF000002B7AE711264FF0000857E72DE9F04F55
:100F000088460446D21D22F0070191B0D1E90001C4
:100F1000CDE90A0103F059F902460B98C00F01D040
:100F20002D2007E02068810701D52B2002E0202139
:100F300001EAC000032A099001D0072A05DB034615
:100F40004146204600F0FAFA0BE12078800601D5F0
:100F5000E06900E00620B8F1650F814606D0B8F1DF
:100F6000660F18D0B8F1670F70D131E00020B9F1E9
:100F7000110F009001DB112301E009F101030AAA1E
:100F800001A90CA8FFF7E2FEDDE90C70002609F1CB
:100F90000105834647E001204B4600904FF0004793
:100FA0000AAA01A90CA8FFF7D1FEDDE90DB00C9942
:100FB0005D46002610B909F101000D18B9EB0500D6
:100FC00003D4C0F1FF3609F10105A5EB09002BE0C0
:100FD000B9F1010F01DA4FF001090020B9F1110F49
:100FE0000090484601DD112300E003460AAA01A94A
:100FF0000CA8FFF7ABFEDDE90C704D4600268346DA
:10100000207800070AD4AB4500DA5D4601A8012D1F
:1010100004DD411911F8011C302907D04F4502DACF
:1010200017F1040F04DA012082460FE06D1EEEE78F
:10103000002F02DCED1B3E4403E0781CA84200DDDB
:101040007D1CB81B00F1010A4FF000472078000713
:1010500003D4AA4501DB4FF0FF3A0021B7F1004F5E
:101060000DF143088DF8431024D002202B23002FCC
:1010700001DA7F422D230A21021EA0F1010000DCCB
:101080005FB197FBF1FC97FBF1F201FB1C7C17466B
:101090000CF1300C08F801CDEEE7A8F10100037067
:1010A0002188090501D5452100E06521A0F101084D
:1010B00000F8011C09980FA9A1EB0807FF1D00B15A
:1010C0000120411901EBEA70A1693844081A401E59
:1010D000A0612078C00602D42046FFF7DFFB099804
:1010E00028B1D4E901219047206A401C2062207871
:1010F000C00622D52046FFF7D1FB1EE0002E04DB00
:10110000B34502DD01A8805D00E03020D4E9012173
:101110009047206A401C2062761CAAF101005FEA19
:10112000000A0AD100F006FAC0680168405CD4E900
:1011300001219047206A401C2062281EA5F101056C
:10114000DCDC07E0D4E9012118F8010B9047206AA4
:10115000401C2062381EA7F10107F3DC2046FFF790
:10116000B3FB032011B041E62DE9F04F04460D46D4
:10117000D21D22F0070089B0D0E9009748463946D1
:1011800003F023F80246F80F01D02D2307E0206872
:10119000810701D52B2302E0202101EAC0038DF84D
:1011A00020300BB1012000E00020032A824601D04C
:1011B000072A04DB2946204600F0C0F93FE12078E9
:1011C000800601D40D2500E0E569C7F30A560D2D10
:1011D00049DA00214FEA175B08464FF00000002F64
:1011E00000F4400007DA00EB80004FF4400100EB10
:1011F000D07001EA60008115012901DD4FF0FF3157
:1012000000224FEA850CBCF1180F06D31346ACF14F
:1012100018004FF08052C24003E04FF4801323FACD
:101220000CF30CF10C0CBCF1200F04D3ACF1200C2E
:1012300009FA0CF001E007FA0CF000294FF0004821
:1012400001DD18B90FE00ED140450CD319EB0209AE
:101250005F4121B9404502D19F4329EA0209BBEB16
:10126000175F00D0761C2088000502D57B487844A3
:1012700002E07A487844193808AA302302F80A3084
:10128000037C0AF10101002E0AF1020A53546A4656
:1012900002DC4FF0300101E04FF031014FF0010866
:1012A0008DF8001002D0A6F2FF3603E059EA47019C
:1012B00000D06B4E002D02DC2178090704D54FF0D9
:1012C00002082E218DF80110C44600210BE0C7F35F
:1012D00003433F01C35C491C6D1E02F80830052919
:1012E00008F1010801DA002DF1DC00210CE000EB2F
:1012F0001973491C1B786D1E082902F808304FEA43
:10130000091908F1010801DA002DF0DC21688B06CB
:1013100002D516E0A8F10108E04505DD02EB08035F
:1013200013F8013C302BF5D0B8F1000F09DD02EBCA
:10133000080313F8013C2E2B03D1090701D4A8F1AF
:101340000108002D05DD3E2102F808106D1E08F190
:101350000108407C002E02F8080008F1010804DAB8
:101360002D20764202F8080002E02B2002F8080047
:101370000A214FF47A70864208F101080BDB96FBD4
:10138000F0F3303302F8083096FBF0F308F101086F
:1013900000FB136601E0642E0CDB642096FBF0F387
:1013A000303302F8083096FBF0F308F1010800FB37
:1013B000136601E00A2E06DB96FBF1F0303002F8EE
:1013C000080008F1010896FBF1F001FB10603030D5
:1013D00002F80800A16908F1010808EB050202EB18
:1013E0000A00081AA0612078C00602D42046FFF740
:1013F00055FA216A08AE01EB0A00206204E0D4E944
:10140000012116F8010B9047BAF1010AF7D22078B2
:10141000C00602D52046FFF741FA6E4609E016F8ED
:10142000010B3E280FD0D4E901219047206A401CCF
:101430002062B8F10108F2D22046FFF745FA09B060
:101440000320BDE8F08F206A2844206203E0D4E93D
:101450000121302090476D1EEBD3F8E7396D000075
:1014600002FCFFFF10B5436913B1AFF3008001E048
:10147000FFF708FB012010BD128800F124018284CF
:101480000022C2840122EDE711684FF0FF32E9E744
:10149000007B00F08000704770B516460C4605468C
:1014A00000F040F8036893F80101012806D0FF2CF2
:1014B0000FD8185D68B101202C7070BDD3F80701FA
:1014C0003246214603F2071303442846BDE8704024
:1014D00018474FF0FF3070BD754600F0EBF8AE4690
:1014E00005006946534620F00700854618B020B530
:1014F000FEF710FFBDE820404FF000064FF0000758
:101500004FF000084FF0000B21F00701AC46ACE8AB
:10151000C009ACE8C009ACE8C009ACE8C0098D4618
:101520007047000010B500F005F8001D10BD00BFA9
:101530001158000000487047340600202DE9F041A2
:101540001F46044603260168072A01F4006004DBF5
:1015500008B116A505E016A503E008B115A500E041
:1015600015A521F010002060A069C01EA0610FB178
:10157000401EA0612046FFF791F94FB1D4E9012147
:1015800038469047206A401C2062C01C206206E05A
:10159000206AFAE7D4E9012115F8010B9047761E7D
:1015A000F8D22046FFF790F9BDE8F0814E414E0099
:1015B0006E616E00494E4600696E66002DE9F04787
:1015C000814616468AB0354878440DC88DE80D002E
:1015D00032487844801C03AC0DC884E80D0041F605
:1015E0009B300844372190FBF1F290FBF1F5A5F117
:1015F000800501FB12041B3C02D56442012000E07F
:101600000020DFF898A080460027FA44AAF1BE0A1D
:101610000EE0E0070AD03246684607EB4701012397
:101620000AEB810100F0DBFA8DE8070064107F1CF3
:10163000002CEED1194F7F44AE3F19E0E80715D0DA
:1016400007EB04100DF1180A90E80E008AE80E006E
:10165000C068F04201D1981908903246012306A9CA
:1016600003A800F0BCFA03AB83E807006D10641C0C
:10167000002DE3D14FF0010332466946B8F1000F67
:1016800003A802D000F096FA01E000F0A8FAC9E938
:101690000001C9F808200AB0BDE8F087706A0000B0
:1016A00010B50446AFF300802046BDE81040FEF7B9
:1016B00002BE000000487047140600205FEA400C9C
:1016C00008BF91F0000F4FEA8C234FEAC12243EA92
:1016D00051514FEA1C5018BF00F5F0404FEA30005E
:1016E00018BF41F000415FEA6C5C00F02980BCF15A
:1016F000FF3F08BF40F080407047130C06BF120444
:101700004FF0100C4FF0000C130E04BF12020CF13E
:10171000080C130F04BF12010CF1040C930F04BF4B
:1017200092000CF1020CD30F04BF52000CF1010C1B
:1017300011464FF00002A0F11F00A0EB0C00704713
:1017400011F0004F08BF704731F000413FF4D5AFB2
:101750000B0C06BF09044FF0100C4FF0000C0B0EE1
:1017600004BF09020CF1080C0B0F04BF09010CF1B6
:10177000040C8B0F04BF89000CF1020CCB0F04BFCB
:1017800049000CF1010CCCF12003A0EB0C0022FA73
:1017900003F302FA0CF241EA030100F10100704781
:1017A00020F07F4C80EA030023F07F47ACEB070377
:1017B00003F57C5300F0004003F1FF032DE980495D
:1017C0004FEA154B09B44FEA144325EA0B4E24EABD
:1017D00003480FF2042606EB132749083E785FEA18
:1017E000320203FB0667C7F5000707FB06F64FEA60
:1017F00054374FEAD64606F1020607FB066CCCF1D9
:10180000005C4FEA1C472CEA074C07FB06F40CFB74
:1018100006F504EB15464FEA961634BF00204FF04C
:1018200000404FEAD13706FB07FC4FEA1C4C0CFB8B
:101830000BF7D21B03FB0CF761EB07010CFB0EF758
:10184000B0EB074072EB17420CFB08F734BFA2EB7A
:101850000742B2EB074261EB17414FEA0C444FEAF3
:10186000910706FB07FC4FEA1C4C0CFB0BF7B0EB97
:10187000C74072EB573203FB0CF734BFA2EBC742F1
:10188000B2EBC74261EB57310CFB0EF7B0EBC70070
:1018900072EB57720CFB08F734BFA2EBC702B2EB36
:1018A000C70261EB5771039F4FEA816141EA9211D0
:1018B00004EBCC044FEAD1374FEA826206FB07FC07
:1018C00042EA90124FEA80604FEA1C4C0CFB0BF787
:1018D000D21B03FB0CF761EB07010CFB0EF7B0EB1F
:1018E000074072EB17420CFB08F734BFA2EB07422C
:1018F000B2EB074261EB17414FEA8C554FEA910773
:1019000004EB9C2406FB07FC4FEA1C4C0CFB0BF77A
:10191000B0EBC74072EB573203FB0CF734BFA2EBBE
:10192000C742B2EBC74261EB57310CFB0EF7B0EB8D
:10193000C70072EB57720CFB08F734BFA2EBC7026B
:10194000B2EBC70261EB577115EB4C254FEA816191
:1019500041EA92114FEA82624FEAD13742EA90128D
:1019600006FB07FC44F100044FEA80604FEA1C4C80
:101970000CFB0BF7D21B03FB0CF761EB07010CFB15
:101980000EF7B0EB074072EB17420CFB08F734BFC1
:10199000A2EB0742B2EB074261EB174115EB1C15B6
:1019A0004FEA813141EA92414FEA823242EA904263
:1019B0004FEA80304FEA0C7644F1000448EA0343D2
:1019C0004EEA0B484FF0000EB2EB080C71EB030728
:1019D00024BF624639464EEB0E0E4FF0000B001846
:1019E000524149414BEB0B0BB2EB080C71EB030777
:1019F0007BF1000B24BF624639464EEB0E0E4FF0D2
:101A0000000B0018524149414BEB0B0BB2EB080C99
:101A100071EB03077BF1000B24BF624639464EEBA6
:101A20000E0E51EA020718BF46F0010616EB0E76BD
:101A300055F1000254F1000103D5BDE88901BDE86C
:101A40000088BDE88901BDE80048B619524141EB64
:101A50000101A3F10103704780807F7E7D7C7B7A4A
:101A60007978777676757473727171706F6E6E6D4A
:101A70006C6C6B6A6A6968686766666564646363F0
:101A800062616160605F5F5E5E5D5D5C5C5B5B5A76
:101A90005A595958585757565655555554545353E3
:101AA00052525251515050504F4F4F4E4E4D4D4D3E
:101AB0004C4C4C4B4B4B4A4A4A4949494848484789
:101AC00047474746464645454544444444434343C7
:101AD0004342424242414141002B9C4630D4770070
:101AE0002BD01CB54FEA370703B44FF010004FF06E
:101AF0001001BAF1000F06D0BCF1000FDCBF40F0BE
:101B0000080040F008014FF000000FBCBDE8104095
:101B10000BF1010BBBF1010F08BF5FEA170722BFF2
:101B200012F1010211F101014FF0004143F10003F4
:101B300000F0004043EA00007047F9D35708D0E7AF
:101B400046EA064613F1400F4FEA16461FDD13F131
:101B5000200FDFBF16430A46002120335B42BED070
:101B6000C3F1200746EA064602FA07F74FEA16468F
:101B700046EA0706C3F1200722FA03F201FA07F743
:101B800021FA03F14FF0000342EA0702A7E746EA11
:101B9000020646EA06464FEA164646EA0106BCBF7A
:101BA00046EA0646360C4FF000034FF000024FF0B5
:101BB000000194E72DE9804C9A46934670B491E871
:101BC000380007C831EA400C48BF34EA430C03D55B
:101BD000FFF7E6FDFFF780FFF0BCBDE8008C2DE9C4
:101BE000804C9A46934670B491E8380007C810F0CC
:101BF000804F08BF13F0804F03D100F005F8FFF7C6
:101C00006BFFF0BCBDE8008C20F07F4780EA03004A
:101C100023F07F4C07EB0C03A3F57C5300F000404E
:101C2000A3F1FE0392F0000F00F0B38095F0000FD7
:101C300000F077802DE901494FEA11404FEA144640
:101C400021EA004800FB06FC24EA064708FB06F6EA
:101C500007FB08F800FB07F718EB06484CEB164C9F
:101C60004FEA124B18EB07484FEA15464CEB17406A
:101C700022EA0B4E0BFB06FC25EA06470EFB06F696
:101C800007FB0EFE0BFB07F71EEB064E4CEB164C4C
:101C90004FF000061EEB074E4CEB174B18EB0B08F2
:101CA00040F1000018EB0E0B58EB000840F100006B
:101CB0008F1A4FF000013CBFC943661B14BFB5EB40
:101CC000040C00213CBFC943F61B4FEA17444EEAFF
:101CD0008E0E27EA04454FEA1C4704FB07622CEAF4
:101CE000074C05FB07F70CFB05F604FB0CFC16EB99
:101CF000074642EB174216EB0C4642EB1C421BEB2D
:101D0000060658EB0202414146EA9E0601D5BDE8AF
:101D10000189B619524141EB0101A3F10103BDE86C
:101D200001894FEA14454FEA114724EA054621EAA2
:101D3000074C05FB07F406FB07F70CFB06F105FB58
:101D40000CFC11EB074144EB17444FEA124711EB2F
:101D50000C4144EB1C4422EA074C05FB07F206FB4E
:101D600007F70CFB06F605FB0CFC16EB074642EBEF
:101D7000174216EB0C4642EB1C456A1854F1000161
:101D800048BF7047B619524141EB0101A3F101036D
:101D9000704795F0000F37D04FEA11424FEA1447D1
:101DA00021EA024624EA074C02FB07F106FB07F78B
:101DB0000CFB06F402FB0CFC14EB074441EB17414F
:101DC0004FEA154714EB0C4441EB1C4125EA074C44
:101DD00002FB07F506FB07F70CFB06F602FB0CFC03
:101DE00016EB074645EB174516EB0C4645EB1C4238
:101DF000121951F1000148BF7047B619524141EB29
:101E00000101A3F1010370474FEA14454FEA11475E
:101E100024EA054621EA074C05FB07F106FB07F714
:101E20000CFB06F24FF0000605FB0CFC12EB074220
:101E300041EB174112EB0C4251EB1C4148BF70477C
:101E4000921841EB0101A3F10103704770B50446FC
:101E500000688168C943C9071CD1816821F001016C
:101E6000816000F047FD05460FE000BF00F042FD35
:101E7000401B022809D9A06A40F01000A062E06A65
:101E800040F00100E062012070BD20688068C0431E
:101E9000C007EBD0002070BDF8B5002604460096C0
:101EA00000688168C943C90728D0816841F00101F1
:101EB0008160134813490068B0FBF1F000E0401E58
:101EC00000900028FBD100F015FD054611E000BF91
:101ED00000F010FD401B02280BD9A06A40F0100052
:101EE000A062E06A40F00100E06284F82460012012
:101EF000F8BD20688068C043C007E9D10020F8BD64
:101F00000000002040420F0030B503464FF0AA30D9
:101F100000220AE0D4071C780AD084EA501404EBAB
:101F2000C024E4436040521C5B1C8A42F2D330BDA3
:101F3000C5086C4384EAC014F4E7FEE7704710B5A7
:101F400000231A46C40700D04B4011F0800F4FEA1F
:101F500041614FEA116101D081F01B014008521C20
:101F6000082AEFDB184610BDF8B500250446009599
:101F700090F82400012808D0012084F8240020468D
:101F8000FFF764FF060002D04BE00220F8BDA06A14
:101F900020F4885040F00200A062022000F094FD7E
:101FA00022490968B1FBF0F0400000E0401E0090BB
:101FB0000028FBD12046FFF76FFF2068816841F0C1
:101FC0000801816000F096FC074604E000F092FCF6
:101FD000C01B0A2811D8206880680007F6D4206842
:101FE000816841F00401816000F084FC07460EE046
:101FF00000F080FCC01B0A2809D9A06A20F002006A
:1020000040F01000A06284F824500120F8BD206840
:1020100080684007ECD4A06A20F0020040F0010084
:10202000A06284F824503046F8BD00000000002073
:10203000F8B50025009590F82420AE46012A1ED060
:10204000012280F824204A681F244FF47873072A5D
:1020500017D20668776B93FAA3FCBCFA8CFC521E6D
:1020600002FB0CFC04FA0CF4A74393FAA3F3B3FAB3
:1020700083F30C685A439440274377632DE0022092
:10208000F8BD06680D2A14D2376B93FAA3FCBCFA8C
:102090008CFCD21F02FB0CFC04FA0CF4A74393FA4D
:1020A000A3F3B3FA83F30C685A439440274337638E
:1020B00013E0F76A93FAA3FCBCFA8CFC0D3A02FB1E
:1020C0000CFC04FA0CF4A74393FAA3F3B3FA83F3DA
:1020D0000C685A4394402743F7620A683823072460
:1020E00006680A2A14D3F76893FAA3FCBCFA8CFC9E
:1020F0000A3A02FB0CFC04FA0CF4A74393FAA3F38C
:10210000B3FA83F38C685A4394402743F76012E094
:10211000376993FAA3FCBCFA8CFC02FB0CFC04FAB2
:102120000CF4A74393FAA3F3B3FA83F38C685A43EE
:102130009440274337610A68102A01D0112A20D120
:10214000124B02689A4217D193681B0219D4936804
:1021500043F4000393600968102912D10C490D4A19
:102160000968B1FBF2F101EB8101490000E0491E71
:1021700000910029FBD104E0816A41F020018162D5
:10218000012580F824E02846F8BD00000024014025
:102190000000002040420F0070B504000BD0A06A80
:1021A00040F00200A0622046FFF750FE06004FF00C
:1021B000000502D05AE0012070BD21686FF01F00B9
:1021C0000860206841682B4A11404160206881689E
:1021D000294A114081602068C16801F07F41C160D7
:1021E0002068016901F040410161206841696FF395
:1021F0000B014161206881696FF30B0181612068E7
:10220000C1696FF30B01C1612068016A6FF30B01B3
:1022100001622068416A6FF30B0141622068816AA4
:102220006FF30B0181622068C16A01F07F41C162D6
:102230002068C16A01F07F41C1622068016B01F032
:10224000404101632068416B01F0404141632068D7
:10225000816B6FF3150181632068816B6FF315014A
:102260008163204600F0B2F8E562A56284F824504C
:10227000304670BD00003FFFF00601FF0068C06CF3
:10228000704700002DE9F04104004FF0000503D035
:10229000A06A002618B108E00120BDE8F081E662DE
:1022A00084F82460204600F092F82046FFF7CEFD27
:1022B0000146A06AC00600D421B1A06A40F0100017
:1022C000A0627AE0A06A20F4885040F00200A06288
:1022D0003B4823688342E06904D1B0F5402F01D127
:1022E0004FF40020022292FAA2F2E768B2FA82F2D8
:1022F00007FA02F2104362684FF4807C1043A26830
:10230000624509D0012A07D05FF00002D4F814E03A
:10231000BEF1010F02D00AE06246F7E7C7B1A76A33
:1023200047F02007A762E76A47F00107E7625F68A6
:1023300027F4694717435F6023689A68214F3A4042
:1023400002439A60A268624510D0012A0ED016E0BE
:102350004FF4604EA7699EFAAEFEBEFA8EFE7F1E57
:1023600007FA0EF7174347F40062E0E74FF47002F4
:10237000256992FAA2F2B2FA82F26D1E95402268A5
:10238000D36A23F470032B43D362226892680E4B06
:102390001A40824207D1E662A06A20F0020040F0B3
:1023A0000100A0620AE0A06A20F0020040F01000E4
:1023B000A062E06A40F00100E062012108466CE79B
:1023C000003C0140FDF7E1FFFE0E1FFF7047704724
:1023D0002DE9F84300260D460446009600F08AFADF
:1023E000804620688168C90508D5A06A40F02000B1
:1023F000A06284F824600120BDE8F8834168C90523
:1024000003D4C06A10F4700F26D0022000F05CFBE9
:1024100038490968B1FBF0F72068036936490B4277
:102420004FEA61014FEAA1121BD1C3684FEA611C58
:1024300013EA0C0F15D103690B4221D1C068104279
:102440001ED114201FE0681C06D045B300F052FADC
:10245000A0EB0800A84222D8206800688007F2D5C7
:102460002AE003690B4202D1C168114206D0026919
:1024700022490A4206D1C068084203D1542002E032
:10248000292000E0FC204743009813E0681C0ED090
:102490002DB100F02FFAA0EB0800A84207D9A06ADE
:1024A00040F00400A06284F824600320A4E70098B0
:1024B000401C0090B842E9D321686FF01200086018
:1024C000A06A40F40070A06220688068C0F34240B7
:1024D00007280CD1E06850B9A06A20F48070A0628F
:1024E000A06AC00403D4A06A40F00100A0620020EA
:1024F00082E7000000000020244992244992240031
:1025000070B5044690F8240001280DD0012084F80D
:1025100024002046FFF7C0FC02004FF0000005D069
:1025200084F82400104670BD022070BDA16A40F2FC
:102530000123994341F48071A1621F4D23681F4913
:10254000AB4218D10E6816F4702F14D0A66A46F468
:102550008016A6620E68760505D5A66A26F4005692
:1025600046F48056A662A66AF6040AD5E66A26F004
:102570000606E66206E0A66A26F48016A6625E6893
:10258000E9E7E06284F824006FF002001860206838
:102590008368C3F34243072B05D1A84208D10968D9
:1025A00011F4702F04D0816841F480118160B9E783
:1025B000816841F4A001F9E70028014004240140AA
:1025C00010B5044690F82400012807D0012084F8B3
:1025D00024002046FFF73AFC10B107E0022010BDAE
:1025E000A16A21F4885141F00101A162002184F81F
:1025F000241010BD31B500F07DF9044600F07AF9E1
:102600000099001B8842F9D338BD00002DE9F04342
:1026100000230F24DFF8D4C063E001229A400A406F
:102620005ED0FF2A01D8074601E000F104074FEA17
:10263000830601D9A6F12006D7F8008004FA06F532
:102640004FF0040928EA050809FA06F948EA0908DA
:10265000C7F80080C56825EA0205C56023F00305B8
:102660006544AF684FEA83764FEA167604FA06F9B6
:1026700009EA07081E4FB84201D1002719E01D4F93
:10268000B84201D1012714E01B4FB84201D1022703
:102690000FE01A4FB84201D103270AE0184FB842A1
:1026A00001D1042705E0174FB84201D1052700E00A
:1026B0000627B740474513D1AF6827EA0907AF603F
:1026C000114D2E6896432E602D1D2E6896432E6068
:1026D0002D1D2E6896432E602D1D2E6896432E606C
:1026E0005B1C31FA03F298D1BDE8F0830000014091
:1026F00000080140000C014000100140001401409E
:1027000000180140001C0140000401402DE9F84F71
:10271000DFF8B8A100220AF1040B144601274FF09C
:102720000F090BF1040E00BF0B6807FA04F52B40EC
:10273000AB4274D1DFF898C14E68A6EB0C08664531
:102740002BD00DDC032E34D005DC36B3012E19D08E
:10275000022E2FD11BE0112E16D0122E2AD119E0F5
:10276000B8F5881F19D006DCB8F5803F15D0B8F54C
:10277000801F1FD111E0B8F5001F0ED0B8F5041F5F
:1027800018D10AE0CA6815E0CA68121D12E0CA68CA
:1027900008320FE0CA680C320CE08A682AB1012ABC
:1027A0004FF0080203D0456104E0042202E0056115
:1027B00000E00022FF2B01D8064601E000F10406EC
:1027C0004FEA840501D9A5F12005D6F800C009FA21
:1027D00005F82CEA080C02FA05F54CEA050CC6F8D7
:1027E00000C04D68ED006AD53A4DAE6946F001066D
:1027F000AE61AD6924F0030605F001050095364D84
:1028000006EB050CDCF80850A6074FEA167809FA23
:1028100008F6B543314EB04202D100261AE04EE030
:102820002F4EB04201D1012614E02E4EB04201D10C
:1028300002260FE02C4EB04201D103260AE02B4EB7
:10284000B04201D1042605E0294EB04201D105264F
:1028500000E0062606FA08F62E43CCF808604D681C
:10286000DAF80060ED03554601D51E4300E09E43B3
:102870002E604D68AD0305D5DBF800601E43CBF834
:10288000006004E0DBF800509D43CBF800504D6839
:10289000DEF80060ED02754601D51E4300E09E4360
:1028A0002E604D68AD0205D5084D0C352E681E43CF
:1028B0002E6004E0054E0C3635689D433560641C7F
:1028C000102CFFF431AFBDE8F88F00000004014088
:1028D00000001110001002400000014000080140FB
:1028E000000C01400010014000140140001801409C
:1028F000001C0140014800687047000004000020EF
:1029000010B5040008D02068C168C943C90705D1C3
:10291000C068C043800701D4012010BD607B20B98E
:1029200000202073204600F018F802206073216810
:1029300045F25550086020684168626821F007013F
:102940001143416020688168A2686FF30B01114355
:10295000816001206073002010BD70472DE9F041B7
:102960000446007B01280AD00126267302206073EA
:10297000FFF7C0FF054600274FF47A780BE00220EE
:10298000BDE8F081FFF7B6FF401B404503D90320A7
:1029900060732773F4E72068C068C0438007F1D5EF
:1029A00021684AF6AA200860667327730020E7E7CB
:1029B000017B01290FD001210222427303684CF6EA
:1029C000CC421A6003684AF6AA221A6041730021B9
:1029D00001730846704702207047000002480168F2
:1029E000491C01607047000004000020074810B532
:1029F000016841F010010160052000F047F80F2048
:102A000000F006F800F015F8002010BD002002408C
:102A100010B5044600F032FA4FF47A71B0FBF1F0D1
:102A200000F0F0FD00222146501E00F00FF80020BB
:102A300010BD704700F01F02012191404009800045
:102A400000F1E020C0F8001170470000F0B40E4B18
:102A50001B680C46C3F30223C3F10705042D00D9FC
:102A60000425191D072901D2002300E0DB1E0126E1
:102A700006FA05F1491E214099409E40761E1640F7
:102A80003143F0BC01F0BDB80CED00E0064900F0A8
:102A9000070208684FF6FF03184040EA0220034A85
:102AA00010430860704700000CED00E00000FA05DC
:102AB0000120010291FAA1F1024AB1FA81F142F832
:102AC0002100704700000E4210B537A401461DCC0E
:102AD00086B08DE81D0038A0384C006804900020B6
:102AE000042944D012DC012944D002293DD100F050
:102AF000E3F961684FF4804292FAA2F201F4404196
:102B0000B2FA82F2D140491C49002CE008292ED0AB
:102B100010292AD161682268D20126D54FF470129B
:102B200092FAA2F201F47010B2FA82F2D040C90314
:102B30001DF8000010D561684FF4003292FAA2F23D
:102B400001F40031B2FA82F2D14004AA515C1C4A6D
:102B5000B2FBF1F1484301E01A4948436168490278
:102B600003D440000321B0FBF1F006B010BD00F02B
:102B7000BBF9FAE7226AC2F30121012903D19207C6
:102B800001D5C803F1E7022905D1626A920702D58F
:102B900049F64040E9E70329E7D121688903E4D5F4
:102BA0004FF22440E1E7000002030405060708098C
:102BB0000A0B0C0D0E0F1010010200000010024055
:102BC00000127A0000093D002DE9F843054600781F
:102BD000454CC00774D0E06940F08050E061E06986
:102BE000424E00F080500090306840F480703060B9
:102BF000FFF780FE074604E0FFF77CFEC01B642859
:102C000033D83068C005F7D5206A10F4407051D031
:102C1000A98801F4407181424CD0206A0126310418
:102C200091FAA1F2B2FA82F29300314A20F4407094
:102C30001344C3F8006491FAA1F1B1FA81F102EBF7
:102C400081010023C1F800342062C00732D0FFF7B1
:102C500051FE074641F288394FF0020808E000BFF4
:102C6000FFF748FEC11B494502D90320BDE8F883A0
:102C700098FAA8F1B1FA81F141F040014046B6EB73
:102C8000511F01D121680BE090FAA0F1B1FA81F156
:102C900041F04001B0EB511F01D1216A00E0616AAF
:102CA00098FAA8F0B0FA80F000F01F0206FA02F0DD
:102CB0000142D5D0206A696820F440700843206240
:102CC0002878800705D56068A96820F4404008434B
:102CD00060602878C00605D56068696920F48000C6
:102CE000084360600020C1E700100240007000400F
:102CF000000042422DE9F047DFF8708105460E469C
:102D0000D8F8000000F00700B0420CD2D8F800104C
:102D100021F007013143C8F80010D8F8000000F096
:102D20000700B04277D12878514C800705D56068FC
:102D3000A96820F0F000084360602878C00759D0E7
:102D40006968012001290DD0022929D05FF0020312
:102D500093FAA3F2B2FA82F242F02002520904D0AE
:102D6000226803E04FF40033F2E7626A93FAA3F3B8
:102D7000B3FA83F303F01F03984002424BD060681C
:102D800020F0030008436060FFF7B4FD6968074660
:102D900041F2883001290DD00229814617D025E063
:102DA0004FF00073D4E700BFFFF7A4FDC11B4945F6
:102DB00001D918E081466068C0F381000128F3D191
:102DC00018E000BFFFF796FDC11B49450BD86068AE
:102DD000C0F381000228F5D10CE000BFFFF78AFDA7
:102DE000C11B494502D90320BDE8F087606810F097
:102DF0000C0FF3D1D8F80010404601F00701B142A2
:102E00000BD9016821F0070131430160006800F02F
:102E10000700B04201D00120E6E72878400705D539
:102E20006068E96820F4E060084360602878000783
:102E300006D56068296920F4605040EAC1006060EE
:102E400000F052F86168F02292FAA2F201F0F0016B
:102E5000B2FA82F2D140074A515CC8400649086084
:102E60000F20FFF7D5FD0020BEE700000020024044
:102E700000100240CE7D00080000002001480068DC
:102E800070470000000000200848094900684968B0
:102E90004FF4E06292FAA2F201F4E061B2FA82F237
:102EA000D140044A515CC840704700000000002037
:102EB00000100240DE7D00080848094900684968A2
:102EC0004FF4605292FAA2F201F46051B2FA82F227
:102ED000D140044A515CC840704700000000002007
:102EE00000100240DE7D000810B519A385B00FCB9D
:102EF0008DE80F001AA01B4B006804905A681A480E
:102F000002F00C0104291DD008291BD14FF47014C4
:102F100094FAA4F402F47011B4FA84F4E140D203F8
:102F20001DF8011010D55A684FF4003393FAA3F33B
:102F300002F40032B3FA83F3DA4004AB9A5CB0FBDC
:102F4000F2F0484305B010BD08484843FAE70000D6
:102F500002030405060708090A0B0C0D0E0F1010DA
:102F6000010200000010024000127A0000093D003A
:102F70002DE9F84F04460078F74DC0074FF00106E1
:102F800025D068687704C0F38100012807D06868FD
:102F9000C0F3810002281BD16868C00318D597FAD6
:102FA000A7F0B0FA80F040F02000400901D0286876
:102FB00000E0686A97FAA7F1B1FA81F101F01F0108
:102FC00006FA01F108425ED0606800287CD05AE021
:102FD0006068B0F5803F0BD010B1B0F5A02F11D0D4
:102FE000286820F480302860286820F4802002E0DF
:102FF000286840F480302860606828B3FFF77AFCC6
:1030000080460BE0286840F480202860F0E700BF8D
:10301000FFF770FCA0EB0800642871D897FAA7F0BE
:10302000B0FA80F040F02000400901D0286800E0AC
:10303000686A97FAA7F1B1FA81F101F01F0106FA67
:1030400001F10842E4D01EE0FFF754FC804605E0A1
:10305000FFF750FCA0EB08006428DED897FAA7F031
:10306000B0FA80F040F02000400901D0286800E06C
:10307000686A97FAA7F1B1FA81F101F01F0106FA27
:1030800001F10842E4D12078DFF8D08280074FF0C8
:1030900000094FF002075BD568684FF0F80B10F09D
:1030A0000C0F07D06868C0F3810002281CD1686843
:1030B000C00319D497FAA7F0B0FA80F040F02000CE
:1030C000400902D0286801E08BE0686A97FAA7F10E
:1030D000B1FA81F101F01F0106FA01F108422CD08A
:1030E000206901287DD128E0206990B396FAA6F0E6
:1030F000B0FA80F048F82060FFF7FCFB824607E05A
:1031000011E100BFFFF7F6FBA0EB0A00022884D80C
:1031100097FAA7F0B0FA80F040F02000400901D003
:10312000286800E0686A97FAA7F1B1FA81F101F026
:103130001F0106FA01F10842E4D028689BFAABF2BD
:103140006169B2FA82F220F0F800914008432860E9
:1031500025E0FFE796FAA6F1B1FA81F148F821904F
:10316000FFF7C8FB824605E0FFF7C4FBA0EB0A00AF
:103170000228CCD897FAA7F0B0FA80F040F02000EF
:10318000400901D0286800E0686A97FAA7F1B1FA0F
:1031900081F101F01F0106FA01F10842E4D1207823
:1031A00000076ED5A069B8B396FAA6F0B0FA80F021
:1031B00008EB8000C0F88064FFF79CFB824605E0C6
:1031C000FFF798FBA0EB0A000228A0D897FAA7F017
:1031D000B0FA80F040F06000B6EB501F02D12868D2
:1031E0000CE062E197FAA7F0B0FA80F040F06000DE
:1031F000B7EB501F01D1286A00E0686A97FAA7F17F
:10320000B1FA81F101F01F0106FA01F21042D7D0A4
:103210000120FFF7EFF934E0FFE796FAA6F1B1FAE3
:1032200081F108EB8101C1F88094FFF763FB8246CE
:1032300006E000BFFFF75EFBA0EB0A00022872D891
:1032400097FAA7F0B0FA80F040F06000B6EB501F9C
:1032500001D128680BE097FAA7F0B0FA80F040F0AF
:103260006000B7EB501F01D1286A00E0686A97FA46
:10327000A7F1B1FA81F101F01F0106FA01F2104243
:10328000D8D12078400765D5E86940F08050E861E2
:10329000E869DFF8CCB000F080500090DBF8001057
:1032A00041F48071CBF80010FFF724FB824605E063
:1032B000FFF720FBA0EB0A00642834D8DBF80000FD
:1032C000C005F5D5E06801280AD008B1052813D05B
:1032D000286A20F001002862286A20F0040002E039
:1032E000286A40F001002862E06841F2883B90B310
:1032F000FFF700FB82460BE0286A40F004002862DA
:10330000EEE700BFFFF7F6FAA0EB0A0159450AD82D
:1033100097FAA7F0B0FA80F040F04000B6EB501FEB
:1033200002D128680CE0A3E097FAA7F0B0FA80F089
:1033300040F04000B7EB501F01D1286A00E0686AF6
:1033400097FAA7F1B1FA81F101F01F0206FA02F132
:103350000842D7D031E005E00010024000004242B0
:1033600000700040FFF7C6FA824605E0FFF7C2FA98
:10337000A0EB0A0159457BD897FAA7F0B0FA80F084
:1033800040F04000B6EB501F01D128680BE097FADF
:10339000A7F0B0FA80F040F04000B7EB501F01D129
:1033A000286A00E0686A97FAA7F1B1FA81F101F0A2
:1033B0001F0206FA02F10842D8D1E06980B36968B9
:1033C000C1F38101022970D04FF080714F000228B3
:1033D000484609D091FAA1F1B1FA81F148F82100EB
:1033E000FFF788FA044669E08A4691FAA1F1B1FA3A
:1033F00081F1C14648F82100FFF77CFA804605E0DC
:10340000FFF778FAA0EB0800022854D897FAA7F043
:10341000B0FA80F040F02000400902D0286801E0B6
:1034200061E0686A97FAA7F1B1FA81F101F01F0132
:1034300006FA01F10842E3D1206AB0F5803F05D1D8
:103440006868A16820F4003008436860D4E9080186
:103450000843696821F47411084368609AFAAAF075
:10346000B0FA80F049F82060FFF744FA044606E01D
:1034700021E000BFFFF73EFA001B02281BD897FA95
:10348000A7F0B0FA80F040F02000400901D0286891
:1034900000E0686A97FAA7F1B1FA81F101F01F0123
:1034A00006FA01F10842E5D01DE01EE0FFF722FA1E
:1034B000001B022802D90320BDE8F88F97FAA7F075
:1034C000B0FA80F040F02000400901D0286800E008
:1034D000686A97FAA7F1B1FA81F101F01F0106FAC3
:1034E00001F10842E2D10020E6E70120E4E7000014
:1034F000024850F8210080B270470000006C004084
:10350000024800EB810091B201607047006C0040FE
:1035100070B5040003D0607C002610B105E00120E6
:1035200070BD2674204600F043F8022060742046E7
:1035300000F03FF8042578BB204600F073FB58BB31
:103540002068416821F007014160A06820B1174858
:10355000016821F0010101601448001F0168A268A0
:1035600021F46071114301606068411C04D10120A5
:10357000FFF7AAFA80B1401E21688A6822F00F0284
:1035800042EA10428A602168CA6860F30F02CA608A
:10359000204600F061FB08B16574C0E7E6730120C6
:1035A0006073A0736074002070BD0000306C004038
:1035B000704770B504000AD02068416821F0080106
:1035C0004160FFF797F905464FF47A7608E001204D
:1035D00070BDFFF78FF9401BB04201D9032070BDC9
:1035E000206840680007F4D5002070BD4FF0E0214E
:1035F0000428086903D020F004000861704740F0F7
:103600000400FAE710B5401EB0F1807F01D301201D
:1036100010BD4FF0E02460610F21601700F0F1FA57
:103620000020A06107202061002010BD7047704776
:10363000704770B50446006801694FF00005C94342
:10364000890715D4C168C943890711D4E91E0161EE
:1036500001202076206880698007204602D0FFF78D
:10366000E7FF04E000F098F8204600F037F92576EF
:1036700020680169C943490717D4C168C94349078C
:1036800013D46FF004010161022020762068806964
:1036900010F4407F204602D0FFF7CAFF04E000F09C
:1036A0007BF8204600F01AF9257620680169C943A5
:1036B000090716D4C168C943090712D46FF008017D
:1036C0000161042020762068C0698007204602D06E
:1036D000FFF7AEFF04E000F05FF8204600F0FEF8D0
:1036E000257620680169C943C90617D4C168C94352
:1036F000C90613D46FF010010161082020762068FC
:10370000C06910F4407F204602D0FFF791FF04E02B
:1037100000F042F8204600F0E1F8257620680169C3
:10372000C943C90708D1C168C943C90704D1891E63
:103730000161204600F01EF920680169C9430906AD
:1037400009D4C168C943090605D46FF0800101613D
:103750002046FFF76BFF20680169C943490609D479
:10376000C168C943490605D46FF040010161204694
:1037700000F001F920680169C94389060BD4C168CA
:10378000C943890607D46FF0200101612046BDE8D6
:103790007040FFF74CBF70BD704770B5044690F89D
:1037A00038000D4601280DD0012684F8386002202B
:1037B00084F8390042B1042A18D0082A2AD00C2AE9
:1037C0004DD139E0022070BD206800F0FDFA20687C
:1037D000816941F0080181612068816921F004015B
:1037E0008161206881692A69114311E0206800F035
:1037F0001BFB2068816941F4006181612068816957
:1038000021F480618161206881692A6941EA02218D
:10381000816124E0206800F03DFB2068C16941F02F
:103820000801C1612068C16921F00401C1612068FB
:10383000C1692A69114311E0206800F05FFB20682C
:10384000C16941F40061C1612068C16921F48061EE
:10385000C1612068C1692A6941EA0221C16184F815
:103860003960002084F8380070BD10B5044602208D
:1038700084F839002068016A41F21112114207D11F
:10388000016A9210114203D1016821F00101016027
:10389000204600F021F8002084F8390084F8380030
:1038A00010BD10B5040003D094F8390010B107E042
:1038B000012010BD002084F83800204600F00DF8EB
:1038C000022084F83900211D206800F02FFA012021
:1038D00084F83900002010BD704770477047000021
:1038E00010B504460068012200F062FA0849206819
:1038F000884202D00749884203D1416C41F400411B
:1039000041642068016841F001010160002010BDA0
:10391000002C01400034014010B50446006800222C
:1039200000F046FA114841F21112216893108142C9
:1039300002D00F48814209D1086A104206D1086AB4
:10394000184203D1486C20F4004048642068016AA2
:10395000114206D1016A194203D1016821F0010127
:103960000160012084F83900002010BD002C0140C6
:10397000003401407047704770B5040004D094F8DB
:103980003900002510B106E0012070BD84F83850E0
:10399000204600F021F8022084F839002068C16830
:1039A00021F40051C160204600F0D0FA206801697E
:1039B00021F4904101612068416921F02A014161AF
:1039C0002068C16841F40051C160E563012084F8BA
:1039D0003900002070BD000010B500681E4986B097
:1039E000884236D11D48816941F0040181618169B5
:1039F00001F004010491816941F480418161816990
:103A000001F480410491816941F001018161806983
:103A1000134C00F0010004904FF40070009002205D
:103A20000190012002900320039069462046FEF792
:103A30006DFE201500900020019069462046FEF79B
:103A400065FE2520FEF7F6FF012200212520FEF766
:103A5000FDFF06B010BD000000380140001002401C
:103A6000000801402DE9F047044690F839009946D6
:103A70000D46012801D0122858D12DB322B394F855
:103A80003800012852D0012684F838600027E76307
:103A900094F8390012281AD05FF0220084F8390017
:103AA000A285E2854FF48058E08D4B46401EE085AC
:103AB000A0684FF0000240454FF02001204616D18B
:103AC00000F0FCFAB0B904E00120BDE8F087322034
:103AD000E4E7206900282068406803D0C1B225F8D7
:103AE000011B12E0C0F3080125F8021B0DE000F0F5
:103AF000E5FA08B10320E8E720690028206840685B
:103B000001D000F07F0005F8010BE08D0028CBD13B
:103B100094F83900322805D084F8396084F8387078
:103B20000020D2E7122084F83900F7E70220CCE722
:103B30002DE9F047044690F8390099460D460128D2
:103B400001D0222858D12DB322B394F8380001288F
:103B500052D0012684F838600027E76394F83900D2
:103B600022281AD05FF0120084F83900A284E2847F
:103B70004FF48058E08C4B46401EE084A0684FF024
:103B8000000240454FF08001204613D100F096FA24
:103B900008BB04E00120BDE8F0873220E4E7288874
:103BA0002168C0F308004860206908B16D1C08E076
:103BB000AD1C06E000F082FA68B9216815F8010B27
:103BC0004860E08C0028D5D14B4600224021204699
:103BD00000F074FA08B10320DDE794F839003228C8
:103BE00006D084F8396000BF84F838700020D2E72E
:103BF000222084F83900F7E70220CCE7FEE7FEE751
:103C000070470907090E002806DA00F00F0000F1DE
:103C1000E02080F8141D704700F1E02080F80014C7
:103C20007047704770B50446FEF764FE05464FF4D2
:103C30007A7606E0FEF75EFE401BB04201D9032013
:103C400070BD206840688006F4D52068416841F066
:103C500010014160002070BD70B5044600684168E5
:103C600021F010014160FEF745FE05464FF47A76DB
:103C700007E000BFFEF73EFE401BB04201D9032023
:103C800070BD206840688006F4D5002070BD704784
:103C900030B58FB001210091022509040024079559
:103CA000CDE90114CDE908106846FFF761F900B1CC
:103CB000FEE70F20CDE90A054FF48060CDE90C4006
:103CC00002210AA80E94FFF715F8002800D0FEE79D
:103CD0000FB030BDFEF782BE0D48016841F0010112
:103CE000016041680B4A1140416001680A4A114075
:103CF0000160016821F480210160416821F4FE0126
:103D000041604FF41F0181600449C003086070479F
:103D1000001002400000FFF8FFFFF6FE08ED00E093
:103D20000148FFF786BC000040030020F0B50268A0
:103D30001A4B1B4D1B4E1C4F1C4C4FF0804C984295
:103D400009D0A04207D0604505D0A84203D0B042B8
:103D500001D0B84204D122F0700E4A6842EA0E0245
:103D6000984209D0A04207D0604505D0A84203D0B0
:103D7000B04201D0B84203D122F44075CA682A4348
:103D800002608A68C2620A688262984201D0A042D8
:103D900001D10969016301214161F0BD002C01409D
:103DA0000004004000080040000C004000340140C6
:103DB00010B50123046A8B409C430462036A8A4065
:103DC0001343036210BD0000F0B5026A22F0010245
:103DD0000262036A42688469124E24F073050C681B
:103DE0002C4323F002058B682B430D4DA84201D0D4
:103DF000B04205D123F00807CB683B4323F004030E
:103E0000A84201D0B04205D14D6922F44072154359
:103E10008A692A4342608461496841630362F0BD54
:103E2000002C014000340140F0B5026A22F010027B
:103E30000262026A436884690D6824F4E64444EA35
:103E400005248D6822F0200242EA05120F4D104E23
:103E5000A84201D0B04206D1CF6822F0800242EAE7
:103E6000071222F04002A84201D0B04207D14D69AA
:103E700023F4406343EA85038D6943EA8503436085
:103E80008461496881630262F0BD0000002C01403A
:103E900000340140F0B5026A22F480720262026AC4
:103EA0004368C46922F4007224F073050C68124E52
:103EB0002C438D6842EA05220E4DA84201D0B04243
:103EC00006D1CF6822F4006242EA072222F480621F
:103ED000A84201D0B04207D14D6923F4405343EAD0
:103EE00005138D6943EA05134360C4614968C163E2
:103EF0000262F0BD002C01400034014030B5026A7E
:103F000022F480520262046A4268C3690D6823F495
:103F1000E64343EA05238D6824F4005444EA05345B
:103F2000084DA84202D0084DA84204D14D6922F4A0
:103F3000804242EA85124260C361496801640462BA
:103F400030BD0000002C0140003401402DE9F0415B
:103F5000044600680169E26821F44051114301619F
:103F60002169A0680843616908432168CA6841F271
:103F70000C639A430243CA6020684169A26921F434
:103F80004071114341614C492068642532268842C2
:103F90003CD1FEF791FF00EBC00101EB001061681E
:103FA0008900B0FBF1F7FEF787FF00EBC00101EBE2
:103FB00000106168B0468900B0FBF1F0B0FBF5F08D
:103FC0006FF01801484307EB800106EB0110B0FBCE
:103FD000F5F000F0F006FEF76FFF00EBC00101EB1B
:103FE000001061688900B0FBF1F0B0FBF5F006EB62
:103FF0000016FEF761FF00EBC00101EB00106168E5
:104000008900B0FBF1F7FEF757FF3BE0FEF73CFFFE
:1040100000EBC00101EB001061688900B0FBF1F713
:10402000FEF732FF00EBC00101EB00106168B04603
:104030008900B0FBF1F0B0FBF5F06FF018014843D8
:1040400007EB800106EB0110B0FBF5F000F0F00685
:10405000FEF71AFF00EBC00101EB00106168890058
:10406000B0FBF1F0B0FBF5F006EB0016FEF70CFF2D
:1040700000EBC00101EB001061688900B0FBF1F7B3
:10408000FEF702FF00EBC00101EB00106168890040
:10409000B0FBF1F0B0FBF5F06FF01801484307EB0F
:1040A000800108EB0110B0FBF5F0216800F00F0073
:1040B00030448860BDE8F081003801402DE9F047C8
:1040C0001D4690460E460446FEF714FC07465FEA7E
:1040D00008004FF000094FF0010808D030E0681CDC
:1040E00005D095B1FEF706FCC01BA8420DD820688C
:1040F000006836EA0000F2D127E0681C20D025B124
:10410000FEF7F8FBC01BA8421AD92068C16821F04D
:104110008001C1602068C16821F02001C160206871
:10412000C16821F48071C1602068416921F00101FA
:10413000416184F8398084F838900320BDE8F08725
:104140002068006836EA0000D7D00020F6E70000BB
:10415000F8B5144D144C4FF47A7705F180061148E8
:104160003B46012269468030FFF77CFC9DF8000049
:10417000216868542068401CC11700EB516121F090
:104180007F01401A6168884201D0206004E007A0E6
:10419000FCF700F902F00EFC30680068C0438006AE
:1041A000DDD5F8BD400200200C000020557361727F
:1041B000742072696E67627566666572206F7665D7
:1041C0007272756E0A000000FEE7490050EAC120D5
:1041D00018BF04204A0D18BF40F0010040F2FF72E2
:1041E000B2EB515F08BF40F00200012808BF052074
:1041F000704730380A2801D20120704700207047EC
:10420000704700000EB5112000900120019007209A
:10421000029069460948FDF70BFF0848FEF770F960
:104220000A210648FEF7D4F80448FEF727F80449A7
:1042300008800248FEF7C4F90EBD0000000300200C
:10424000240200202DE9FE4F804602200125002691
:104250008DE8610069464048FDF7EAFE3E48FEF7FA
:104260004FF90A213C48FEF7B3F83B48FEF706F841
:104270003A4CA0803848FEF7A3F9A08802F0CEFFA0
:10428000DFF8DCA00022534603F018F86FF00B0BA8
:104290005A4603F056FD02F07DFFA71DB880B8F125
:1042A000000F51D1DFF8BC904FF01108B9F80000B1
:1042B00080054BD00096CDE9015669462648FDF7AA
:1042C000B7FE2548FEF71CF90A212348FEF780F8BF
:1042D0002148FDF7D3FF20801F48FEF771F9B9F898
:1042E0000000800535D00095CDE9015669461A4891
:1042F000FDF79EFE1848FEF703F90A211648FEF75F
:1043000067F81548FDF7BAFF60801348FEF758F9C3
:10431000208802F083FF00225546534602F0CEFF6C
:104320005E465A4603F00DFD02F034FF3880608887
:1043300002F074FF00222B4602F0C0FF324603F069
:1043400000FD02F027FF7880BDE8FE8FCDF80080E9
:10435000B1E7CDF80080C7E7000300202602002067
:1043600000C8A94034020020F0B523488BB0816911
:1043700041F400718161816901F400710A918169E0
:1043800041F0040181618069012500F0040000957D
:104390000A9003260224194FCDE901646946384684
:1043A000FEF7B4F9CDE90046694638460294FEF7B7
:1043B000ADF90420CDE90006694602943846FEF7BF
:1043C000A5F9A0030690049404A8FEF7FDFB0D4890
:1043D0000B490160002141608160C0E90315416122
:1043E00081614FF46021C161FDF74CFF0548FDF785
:1043F000BBFD0BB0F0BD0000001002400008014002
:10440000002401400003002010B50648FEF7D8F84C
:104410000448FDF7C1FE0448816921F400718161FF
:1044200010BD00000003002000100240FEB507464A
:104430000C46E06802F035FB064600F023F8002544
:1044400019E0FFF7DFFEA06802F02BFB4FF47A7152
:1044500090FBF1F201FB120000F6B8300090084822
:1044600000880190002002900C21684602F072F949
:1044700000BF00BF6D1CB542E3DB00F031F8FEBDAC
:1044800024020020134800B5816987B041F400710F
:104490008161806900F40070069002200090800322
:1044A00002906846FEF790FB0C480B490122016020
:1044B000002141608160C0E90312416181614FF4D4
:1044C0006021C161FDF7DEFE0448FDF74DFD07B038
:1044D00000BD000000100240002401400003002045
:1044E00010B50648FEF76CF80448FDF755FE044881
:1044F000816921F40071816110BD0000000300207A
:1045000000100240FEB507460C46E06802F0C9FA0A
:104510000646FFF729FF00251FE00020FFF792FE67
:10452000A06802F0BEFA4FF47A7190FBF1F201FB41
:10453000120000F6B83000900A48408809490988FE
:1045400000EB014001900748808802900C216846EA
:1045500002F000F900BF00BF6D1CB542DDDBFFF7C4
:1045600053FFFEBD26020020FFB50023EC460022CB
:10457000C3F10304E70000EB83050CEB830600BFE7
:1045800051F82240FC40B45415F802E08EEA040EC3
:1045900005F802E0521C042AF2DB5B1C042BE6DB6C
:1045A00004B00020F0BD00002DE9F043E1B09046DA
:1045B0000022DDF8A0915E925F9260921C466D46EB
:1045C0005D9259925A925B92561E5C9238B1B8F144
:1045D000000F04D01CB1102903D926A005E02AA0A1
:1045E00003E05FEA097206D02AA0FBF7D3FE30464B
:1045F00061B0BDE8F0830A4601465DA8FCF749F8C2
:104600006A4610215DA801F083F800272DE041469D
:1046100059A801F00DF9294659A8FFF7A5FF012671
:1046200059A8103502F04AFA59A802F095F959A88C
:1046300001F06CFB294659A8FFF796FF761C0A2E5D
:10464000EEDB59A802F03AFA59A802F085F905F113
:10465000100159A8FFF788FF214659A802F010FA67
:10466000103408F110086D4610374F45CFD30020A5
:10467000BEE700006B65794C656E206D7573742024
:1046800062652031362E0A00706172616D2065729C
:10469000722E0A00696E4C656E20697320696E7611
:1046A000616C69642E0A000070B50AA002F0D8F8A7
:1046B0000F490E480968046801EB410104EB8105CC
:1046C00005E00CA0A268216802F0CAF80C34A542EB
:1046D000F7D870BD754465466920436C6920436F07
:1046E0006D6D616E64733A200A0000004C7F000813
:1046F000507F0008202025733A2025730A0000000F
:10470000022801DB02F0EEB90020704710B503A1CA
:1047100004A0FBF73FFE002010BD000024302E3126
:104720006100000056657273696F6E202573210A5F
:104730000000000070B50C460546042809DB09A1FD
:104740006068FCF767F830B108A16068FCF762F8B0
:1047500008B1002070BD21462846BDE8704002F037
:104760004BB9000053544D333200000045535033D1
:10477000325332002DE9F04100F07F04C0F30B26E4
:10478000884604200A3400F0EFF8FFF7EDFD00251D
:104790001F4F0FE0304600F0E9F8B04201D0641C32
:1047A00008E00020FFF74EFD7888B988401A00D550
:1047B00040420544201EA4F10104EBDCFFF724FE77
:1047C000042000F0D9F8B8F1000F1ED0FBF77AFDF5
:1047D0000D2190FBF1F201FB1200083002F007FD01
:1047E00000220C4B02F07EFB00220B4B02F0BEFAC3
:1047F00006460C46284602F011FD3246234602F0DA
:104800005DFDBDE8F04102F0C5BC2846BDE8F08181
:1048100026020020000059400000F03FFEB5074688
:104820000C46E06802F03DF90546206902F039F9CE
:104830000646042000F098F8FFF796FD26E0304683
:1048400000F094F8B04201D06D1C1FE00020FFF78B
:10485000F9FCA06802F025F94FF47A7190FBF1F2AF
:1048600001FB120000F6B83000900D4840880C495A
:10487000098800EB014001900948808802900C21D2
:10488000684601F067FF00BF00BF00BF281EA5F10A
:104890000105D4DCFFF7B8FD042000F06DF8FEBD83
:1048A00026020020FEB507460C46E06802F0F9F843
:1048B0000546206902F0F5F80646042000F054F899
:1048C000FFF752FD42E0304600F050F8B04201D010
:1048D0006D1C3BE00020FFF7B5FCA06802F0E1F89A
:1048E0004FF47A7190FBF1F201FB120000F6B83040
:1048F00000901B4840881A49098800EB014001904C
:104900001748808802900C21684601F023FF00BF01
:1049100000BFA06802F0C5F84FF47A7190FBF1F285
:1049200001FB120000F6B83000900E4840880D4997
:10493000098800EB014001900A48808802900C2110
:10494000684601F007FF00BF00BF00BF281EA5F1A9
:104950000105B8DCFFF758FD042000F00DF8FEBD9E
:10496000260200202C020020704700000149086048
:10497000704700003402002070472DE9F0410746DF
:104980000C46E06802F08DF806460420FFF7ECFFC5
:10499000002000E0401CB0F5FA5FFBDB002505E0DD
:1049A0003046FFF7E3FF00BF00BF6D1CB5F5FA6F9F
:1049B000F6DB0420FFF7E0FFBDE8F08110B5044608
:1049C0000420FEF713FE0148046010BD080000201B
:1049D00070B5054600244FF47A7603E0304600F0C7
:1049E00005F8641CAC42F9D370BD000070B54FF0FF
:1049F000E024002265690949A36909684843A1695F
:104A00009942FCD002D2A3EB010302E0A5EB010620
:104A100033441A440B468242F1D370BD0800002093
:104A20002DE9F04788468146886802F03AF842F25C
:104A3000107490FBF4F104FB1106D8F8080002F0A2
:104A400030F890FBF4F74FF47A7096FBF0F100FB2E
:104A50001165052D03DB4FF0FF30BDE8F08702F054
:104A600045F90024094800EBC50506E041464846E3
:104A70006A68904702F034F9641CBC42F6DB3146A8
:104A800003A001F05BFE0020E7E70000E87D0008DE
:104A900046696E697368205461736B3A2025640A15
:104AA000000000002DE9F04788468146886801F043
:104AB000F8FF42F2107490FBF4F104FB1106D8F8F1
:104AC000080001F0EEFF90FBF4F74FF47A7096FBCC
:104AD000F0F100FB11650B2D03DD4FF0FF30BDE859
:104AE000F08702F003F90024094800EBC50506E051
:104AF000414648466A68904702F0F2F8641CBC429E
:104B0000F6DB314603A001F019FE0020E7E70000C4
:104B1000107E000846696E697368205461736B3AB1
:104B20002025640A000000002DE9F04192B00E46F5
:104B3000042834DBF06801F0B4FF01282FD10024F1
:104B400025464FF010084FF47A7719A20DF1080CA2
:104B50000FCA8CE80F001AA30DF1180C0FCB8CE8CC
:104B60002F000B950C950AAB06AA102102A8CDF8D0
:104B700000800D95FFF718FDB06801F092FF90FBE3
:104B8000F7F107FB110000F51670CDE90E050C21B9
:104B90000EA8109501F0DEFD641CBC42D5DB7B2124
:104BA0000BA001F0CBFD12B00020BDE8F0810000A9
:104BB0002B7E151628AED2A6ABF7158809CF4F3C31
:104BC0003243F6A8885A308D313198A2E037073445
:104BD00046696E697368205461736B3A2025640AD4
:104BE000000000002DE9F04788468146886801F002
:104BF00058FF42F2107490FBF4F104FB1106D8F850
:104C0000080001F04EFF90FBF4F74FF47A7096FB2A
:104C1000F0F100FB1165022D03DB4FF0FF30BDE822
:104C2000F08702F063F80024094800EBC50506E0B0
:104C3000414648466A68904702F052F8641CBC42FC
:104C4000F6DB314603A001F079FD0020E7E7000024
:104C5000B07E000846696E697368205461736B3AD0
:104C60002025640A000000002DE9F04788468146AF
:104C7000886801F016FF42F2107490FBF4F104FB17
:104C80001106D8F8080001F00CFF90FBF4F74FF480
:104C90007A7096FBF0F100FB1165072D03DB4FF0F6
:104CA000FF30BDE8F08702F021F80024094800EB4E
:104CB000C50506E0414648466A68904702F010F88C
:104CC000641CBC42F6DB314603A001F037FD002036
:104CD000E7E70000C07E000846696E6973682054EB
:104CE00061736B3A2025640A0000000070B521480A
:104CF0000E4686B0C1691C46154641F00201C161ED
:104D0000C16901F0020104911B494A6822F4406222
:104D100042F400624A60816941F008018161806962
:104D2000694600F0080004902020009002200190C5
:104D30000290032003901148FDF7E8FC1148104948
:104D4000C0E900150025C0E902540561FEF7A9FD80
:104D50000C4860213C3004228560C0E90016014601
:104D60003C38FEF71AFD04210648FEF7B9FD06B0EF
:104D700070BD00000010024000000140000C014026
:104D8000000400404003002010B504210548FEF750
:104D9000C3FD0448FEF769FDBDE81040202102482C
:104DA000FDF734BC40030020000801402DE9FE4F10
:104DB00082460C46E06801F074FE074601F002FAF4
:104DC000DFF8508000F0EEFA8146002605E0124937
:104DD000404602F091FC8046761CBE42F7DB00F0B4
:104DE000E1FAA0EB0905A06801F05BFE4FF47A71CF
:104DF00090FBF1F201FB120000F57A700090019532
:104E0000002002900C21684601F0A4FC00BF00BF06
:104E1000BDE8FE8F19049E3F68912D3F2DE9FE43AA
:104E200080460C46E06801F03CFE064601F0CAF9F7
:104E300000BF00F0B7FA0746002001E000BF401CA9
:104E4000B042FBDB00F0AEFAC51BA06801F029FE02
:104E50004FF47A7190FBF1F201FB120000F57A70C9
:104E600000900195002002900C21684601F072FC30
:104E700000BF00BFBDE8FE832DE9FE4F82460C4611
:104E8000E06801F00EFE074601F09CF9DFF8508063
:104E900000F088FA8146002605E01249404602F0FB
:104EA00099FC8046761CBE42F7DB00F07BFAA0EB53
:104EB0000905A06801F0F5FD4FF47A7190FBF1F25D
:104EC00001FB120000F57A7000900195002002901D
:104ED0000C21684601F03EFC00BF00BFBDE8FE8F1C
:104EE00019049E3F08AC7C3F2DE9FE4380460C46EA
:104EF000E06801F0D6FD064601F064F900BF00F05D
:104F000051FA0746002001E000BF401CB042FBDB25
:104F100000F048FAC51BA06801F0C3FD4FF47A7198
:104F200090FBF1F201FB120000F57A700090019500
:104F3000002002900C21684601F00CFC00BF00BF6D
:104F4000BDE8FE832DE9FE4F82460C46E06801F085
:104F5000A8FD074601F036F9DFF8508000F022FA8C
:104F60008146002605E01249404602F041FD804698
:104F7000761CBE42F7DB00F015FAA0EB0905A0682D
:104F800001F08FFD4FF47A7190FBF1F201FB1200FA
:104F900000F57A7000900195002002900C2168467F
:104FA00001F0D8FB00BF00BFBDE8FE8F19049E3F93
:104FB0002506813F2DE9FE4380460C46E06801F05E
:104FC00070FD064601F0FEF800BF00F0EBF9074661
:104FD000002001E000BF401CB042FBDB00F0E2F922
:104FE000C51BA06801F05DFD4FF47A7190FBF1F2F2
:104FF00001FB120000F57A700090019500200290EC
:105000000C21684601F0A6FB00BF00BFBDE8FE838F
:105010002DE9FE4F82460C46E06801F042FD07464E
:1050200001F0D0F8DFF8508000F0BCF9814600268E
:1050300005E01249404602F0D9FD8046761CBE428A
:10504000F7DB00F0AFF9A0EB0905A06801F029FD3E
:105050004FF47A7190FBF1F201FB120000F57A70C7
:1050600000900195002002900C21684601F072FB2F
:1050700000BF00BFBDE8FE8F19049E3F68912D3F21
:105080002DE9FE4380460C46E06801F00AFD064625
:1050900001F098F800BF00F085F90746002001E014
:1050A00000BF401CB042FBDB00F07CF9C51BA068D0
:1050B00001F0F7FC4FF47A7190FBF1F201FB120062
:1050C00000F57A7000900195002002900C2168464E
:1050D00001F040FB00BF00BFBDE8FE832DE9F34FA8
:1050E00089B0044601F06EF804F03F00C4F30524D3
:1050F000079000F057F90690009404EBD4700590E7
:105100006EE000BFFBF7DEF802F071F84B4A4C4B43
:1051100001F0E8FECDE90310002059E0FBF7D2F8DA
:1051200002F065F8454A464B01F0DCFE0026CDE969
:105130000110374634463546B24632463B461046A5
:10514000194602F0BBF88046894622462B46104697
:10515000194602F0B3F842464B4602F0E3F98046A6
:10516000894632463B462046294602F0A7F80122EE
:1051700002F0E7FDDDE9013206460F4640464946AA
:1051800001F0F4FDDDE9033204460D4630463946B0
:1051900001F0ECFD06460F4602460B4602F08EF883
:1051A0008046894622462B461046194602F086F86C
:1051B00042464B4601F0DAFD0022224B02F07CF918
:1051C00004D30AF1010ABAF1400FB6DB0BF101007A
:1051D000079983468842A1DD0098401E00900598FB
:1051E0000099B1EB600F8DDA00F0DCF80699451AF2
:1051F0000A98F8B1FBF766F80D2190FBF1F201FB7C
:105200001200083001F0F3FF00220F4B01F06AFE9C
:1052100000220E4B01F0AAFD06460C46284601F07E
:10522000FDFF3246234602F049F80BB0BDE8F04FCF
:1052300001F0B0BF0BB02846BDE8F08F0000C0FF02
:10524000FFFFDF4100001040000059400000F03F28
:1052500013B582B04FF6FF7402980A2808D10D20CA
:105260008DF800002346012269460648FEF760FCDF
:105270002346012202A90348FEF75AFC029804B013
:1052800010BD0000C00200202DE9F04115460E4679
:105290000A46074601468EB02DA0FBF77BF8002496
:1052A00001E0042C08D055F8241033A0FBF772F865
:1052B000641C052CF5DB03E031A02969FBF76AF8D3
:1052C00007AB2A463146384600F068FC0024032626
:1052D00027464FF001086D46FAF7F4FFC4F10501C7
:1052E00090FBF1F201FB1200B04203DA45F82470A2
:1052F000761E01E045F82480641C052CECDB22A01E
:10530000FBF748F80024DFF88C80062707AE00BFC3
:1053100056F82400010CB1FBF7F207FB121255F806
:10532000241001B1012108EBC202526890470146E6
:10533000042C08D018A0FBF72DF8641C052CE7DB23
:105340000EB0BDE8F08115A0FBF724F8F8E70000E7
:105350000D0A6F7065726174696F6E3A2025732C47
:10536000206E6F6E63653A2025732C207061796C16
:105370006F6164733A0000005B25735D2C200000B0
:105380005B25735D0D0A0000746F6B656E733A20C8
:1053900000000000F87E000825752C0025750D0A18
:1053A000000000000148406870470000001000E065
:1053B0002DE9FE4F81460C46B9F1050F01D0BDE83D
:1053C000FE8FE06801F06DFB0646206901F069FB85
:1053D00007461448D0F8008008EB06051AE0D5F817
:1053E00000A0A06801F05DFB4FF47A7190FBF1F230
:1053F00001FB120041F28831084400900195CDF87C
:1054000008A00C21684601F0A5F900BF00BF01F01B
:1054100067FC2D1D08EB06003844A842DFD200BF10
:10542000CDE70000380200202DE9F0438DB0814621
:105430000C463EA0A060002534E00A220AA92846B6
:1054400000F03CF90AA82061012628E00A2207A9F9
:10545000304600F033F907A8606101271CE00A22FA
:1054600004A9384600F02AF904A8A0614FF03208D8
:105470000EE00A2201A9404600F020F901A8E060F0
:105480002146484601F0C4F801F02AFC08F105085D
:10549000B8F1960FEDDB7F1C032FE0DB761C032EAB
:1054A000D4DB6D1C012DC8DB21A0A06021A0E06130
:1054B000002535E00A220AA9284600F0FFF80AA8CC
:1054C0006061012629E00A2207A9304600F0F6F8BB
:1054D00007A8A06132271DE00A2204A9384600F07F
:1054E000EDF804A8E06042F210780EE00A2201A96B
:1054F000404600F0E3F801A820612146484600F04C
:10550000FDFE01F0EDFB08F5FA684CF250308045E5
:10551000ECDB0A37462FDFDB761C032ED3DB6D1C5A
:10552000012DC7DB0DB0BDE8F083000030000000A6
:105530003300000031000000F0B587B007460C468C
:1055400020A0A060012519E00A2204A9284600F045
:10555000B5F804A8E06001260DE00A2201A9304652
:1055600000F0ACF801A820612146384600F09EF911
:1055700001F0B6FBB61C152EEFDBAD1C152DE3DBE1
:1055800011A0A060012519E00A2204A9284600F014
:1055900095F804A8E06001260DE00A2201A9304632
:1055A00000F08CF801A820612146384600F022FA6C
:1055B00001F096FBB61C152EEFDBAD1C152DE3DBC1
:1055C00007B0F0BD380000003900000070B5054696
:1055D0000C4605A0A06004A0E06004A02061214664
:1055E0002846FFF7E5FE70BD300000003130303056
:1055F000300000002DE9F0418AB080460C4628A01A
:10560000A06028A0E06000250BE00A2207A9284638
:1056100000F054F807A8206121464046FFF742F900
:105620008035B5F5805FF0DB1FA0A0601FA0E060B3
:105630001FA020611FA0E0611DA020621CA060626D
:10564000502527E00A2207A9284600F037F807A8C6
:10565000A06100261BE00A2204A9304600F02EF8C3
:1056600004A8206101270DE00A2201A9384600F0B4
:1056700025F801A860612146404600F01FFD01F0B9
:105680002FFB323740F2E7308742EDDB761C012EEC
:10569000E1DB0A35822DD5DB0AB0BDE8F0810000E0
:1056A00032000000310000003400000035300000FE
:1056B00030000000313530300000000070B50C467D
:1056C00000210D460E46002803D008DA0A2A04D02D
:1056D00005E030202070667018E00125404290FB04
:1056E000F2F302FB1303092B01DD573300E03033E3
:1056F00090FBF2F06354491C0028F0D115B12D2025
:105700006054491C2046665400F06EFD204670BD72
:105710002DE9F0414FF0FF3440B13AB1102909D0E2
:1057200030A0FAF737FE2046BDE8F08137A0FAF73F
:1057300031FEF8E7134602F1B001002400EB8405C6
:105740002E88AF7876BA3604ED7846EA07262E43DF
:1057500043F82460641C042CF0DB334D334F0024E9
:10576000D86805EB1066C0F3074C367815F80CC006
:1057700000F0FF0E86EA0C66C0F3072C15F80EE069
:1057800015F80CC04FEA0C4C8CEA0E2C86EA0C067D
:1057900053F810CB86EA0C0657F824C0641C86EA3E
:1057A0000C061E6053F80CCC8CEA060CC3F804C03F
:1057B00053F8086C86EA0C067040C3E902600A2CB4
:1057C000CEDB0023A032002052F8204041F82040D8
:1057D000401C0428F8DB1031103A5B1C0B2BF2DB69
:1057E0000020A1E76B6579457870616E73696F6E13
:1057F000206B65794C656E203D2025642C204E6F12
:105800007420737570706F72742E0A006B65794521
:105810007870616E73696F6E20706172616D20695E
:1058200073204E554C4C0A0024000020687E00086E
:1058300030B500235FF0000200EB820511F8014B48
:10584000521CEC54042AF7DB5B1C042BF2DB002017
:1058500030BD30B5C1B00C4605464FF48071684686
:10586000FAF7B0FF294668462268FAF767FD6846EE
:10587000FAF7E4FE024601236946184601F0A2F950
:1058800041B030BD10B5FDF7B1F84FF4E010FEF7B0
:10589000FFF94820FFF792F84FF4E13001F06CF97E
:1058A00001F024FA00F02EFF002010BD2DE9F04F8A
:1058B0008DB00C4600F086FCE06801F0F2F80C9028
:1058C000206901F0EEF8054600200B902A20FAF737
:1058D00097FEFFF767FD0890049566E0FAF7F2FC83
:1058E000039002F039F883464FF09E4101F072FFB9
:1058F00006464FF0000B52E0FAF7E4FC029002F08B
:105900002BF84FF09E41039001F064FF0B904FF095
:105910000008C14600200A90099000273AE041465D
:10592000404602F065F849460390484602F060F8A8
:105930000290039902F05AF909904946404602F054
:1059400057F841460390484602F052F802900399F6
:1059500001F0D2FE0A900B99099801F0CDFE814624
:1059600031460A9801F0C8FE80464146404602F0A2
:105970003FF849460290484602F03AF801900299F1
:1059800001F0BAFE4FF08141039002F0FDF800D221
:1059900002E07F1C402FC2DB00BF0BF1010B0C9813
:1059A0008345A9DD0498401E049005EBD572049947
:1059B000B1EB620F92DAFFF7F5FC0899A0EB010A50
:1059C000A06801F06EF84FF47A7190FBF1F201FBE0
:1059D000120000F57A700590CDF818A0002007900D
:1059E0000C2105A800F0B6FE00BF00BF0DB0BDE859
:1059F000F08F00002DE9F04F95B08A4600F0E2FBF1
:105A0000DAF80C0001F04DF81490DAF8100001F00B
:105A100048F883462B20FAF7F3FDFFF7C3FC0D90FF
:105A2000CDF820B08EE0FAF74DFC059001F0DFFBD9
:105A3000574A584BCDE9060101F054FA8046894691
:105A40000020079077E0FAF73DFC039001F0CFFBD0
:105A50004F4A504BCDE9040101F044FACDE912015F
:105A6000002425460026374600BF00BF00200690D0
:105A70005AE022462B462046294601F01FFC3246BA
:105A80003B46CDE904013046394601F017FCCDE92B
:105A90000201DDE9042301F045FDCDE90E013246A6
:105AA0003B462046294601F009FC22462B46CDE91B
:105AB00004013046394601F001FCCDE90201DDE97F
:105AC000042301F053F9CDE91001DDE91223DDE9EA
:105AD0000E0101F04BF906460F4642464B46DDE902
